:100000000A128A11FA2F00308A000408840A820733
:100010000034573445344C3443344F344D34453434
:10002000203454344F34203445346D3462346534D4
:10003000543472346F346E34693463345834003459
:100EBE0038300A128A11B4270A128A110C300A121B
:100ECE008A11B4270A128A1106300A128A11B4271F
:100EDE000A128A1180300A128A11B4270A128A1154
:100EEE000800831603130711871007100030071828
:100EFE00013086000A128A115F270A128A11803089
:100F0E000A128A11B4270A128A1101300A128A11A2
:100F1E0095270A128A110A128A110028F300A72FA8
:100F2E00730884000A128A1103200A128A110A1207
:100F3E008A11D7270A128A110130FF007F08F307A2
:100F4E00730884000A128A1103200A128A11003AC9
:100F5E00031DB22FB32F972F0800F20072088312D1
:100F6E0003138600071087100715F001F1017108B1
:100F7E00803AFF0083307F02031DC72FE8307002D6
:100F8E00031CCA2FCB2FCC2FD32F0130F007031801
:100F9E00F10A0030F107BE2F831203130711080068
:100FAE00F2007208831203138600071487100715C8
:100FBE00F001F1017108803AFF0083307F02031DBA
:100FCE00EA2FE8307002031CED2FEE2FEF2FF62FD5
:100FDE000130F0070318F10A0030F107E12F8312F8
:100FEE00031307110800F001F10183010A128A119F
:020FFE00782F4A
:08400000FF3FFF3FFF3FFF3FC0
:02400E00FF3F72
:00000001FF
