:100000000A128A11F52F00308A000408840A820738
:10001000003420344B34683461346C3465346434D7
:1000200020344D34613467346434793400342034FE
:10003000443465346534703442346C34753465341A
:0200400000348A
:100C620008340A128A1151260A128A1183160313B2
:100C7200111408000A128A1151260A128A118316C7
:100C820003131115080028308312031394008316EE
:100C9200031391019401273093008715071608006A
:100CA200831603131419562E572E512E11081F396D
:100CB200031D5C2E5D2E512E0800F0000A128A11CF
:100CC20051260A128A1170088312031393008C1D95
:100CD2006B2E6C2E682E8C110800F1000A128A11FC
:100CE20032260A128A117A080A128A115E260A121A
:100CF2008A1171087C040A128A115E260A128A116C
:100D02000A128A113B260A128A110800F3007B0894
:100D1200FF007F08F304730804380A128A116E2652
:100D22000A128A117308FB390A128A116E260A12F4
:100D32008A114230F200F20B9C2E00000800F500EE
:100D4200FB017508F0390A128A1187260A128A11E4
:100D52007508F40003300310F40DFF3E031DAC2EA2
:100D62000310740DF0390A128A1187260A128A11A9
:100D72000800F500FB01FB0A7508F0390A128A1116
:100D820087260A128A117508F40003300310F40D45
:100D9200FF3E031DC72E0310740DF0390A128A118B
:100DA20087260A128A110800F800F601F701EC2ED4
:100DB2007608780784000A128A1103200A128A111F
:100DC2000A128A11BA260A128A110130F60703188A
:100DD200F70A0030F7077608780784000A128A11AA
:100DE20003200A128A11003A031DF82EF92ED92E79
:100DF20008000A128A1144260A128A114E300A1277
:100E02008A115B270A128A11F601F60A01300A12C8
:100E12008A1125270A128A1101300A128A11D5264F
:100E22000A128A11F601F60A02300A128A112527DD
:100E32000A128A110F300A128A11D5260A128A1151
:100E4200212F0A128A110028F900472F7608BF3E87
:100E52000A128A11A0260A128A115A2F7608933E84
:100E62000A128A11A0260A128A115A2F7608D33E34
:100E72000A128A11A0260A128A115A2F76087F3E78
:100E82000A128A11A0260A128A115A2F7908F7002B
:100E9200F8017808003A03194F2F3F2F7708023ADA
:100EA2000319272F013A03192F2F073A0319372F56
:100EB2003F2F0800F9007908FA0000300A128A115F
:100EC2006E260A128A119C30F700D730F600F60B14
:100ED200682FF70B682F03300A128A11A0260A1214
:100EE2008A111A30F700F830F600F60B762FF70B5E
:100EF200762F000003300A128A11A0260A128A11E4
:100F02001A30F700F830F600F60B852FF70B852F15
:100F1200000003300A128A11A0260A128A111A301E
:100F2200F700F830F600F60B942FF70B942F000021
:100F320002300A128A11A0260A128A111A30F70008
:100F4200F830F600F60BA32FF70BA32F0000283082
:100F52000A128A11A0260A128A110230F8000430FD
:100F6200F700BA30F600F60BB42FF70BB42FF80BDC
:100F7200B42F00000C300A128A11A0260A128A111C
:100F82000230F8000430F700BA30F600F60BC72F33
:100F9200F70BC72FF80BC72F000001300A128A1176
:100FA200A0260A128A110230F8000430F700BA3083
:100FB200F600F60BDA2FF70BDA2FF80BDA2F000018
:100FC20006300A128A11A0260A128A110230F8008B
:100FD2000430F700BA30F600F60BED2FF70BED2FC9
:100FE200F80BED2F000008000A128A1131260A12AE
:0E0FF2008A11FC00FB0183010A128A11FA2EFB
:08400000FF3FFF3FFF3FFF3FC0
:02400E003A3F37
:00000001FF
